:020000040800F2
:1000000000000220752000080D1E0008131E0008C5
:10001000191E00081F1E0008251E00080000000011
:100020000000000000000000000000002B1E00087F
:10003000391E000800000000471E0008551E000879
:10004000C5200008C5200008C5200008C5200008FC
:10005000C5200008C5200008C5200008C5200008EC
:10006000C5200008C5200008C5200008C5200008DC
:10007000C5200008C5200008C5200008C5200008CC
:10008000C5200008611E0008C5200008C520000822
:10009000C5200008C5200008C5200008C5200008AC
:1000A000C5200008C5200008C5200008C52000089C
:1000B000751E0008C5200008C5200008C5200008DE
:1000C000C5200008C5200008C5200008C52000087C
:1000D000C5200008891E00089D1E0008C5200008D4
:1000E000C5200008C5200008C5200008C52000085C
:1000F000C5200008C5200008C5200008C52000084C
:10010000C5200008C5200008C5200008C52000083B
:10011000C5200008C5200008C5200008C52000082B
:10012000C5200008C5200008B11E0008C520000831
:10013000C5200008C5200008C5200008C52000080B
:10014000C5200008C5200008C5200008C5200008FB
:10015000C5200008C5200008C5200008C5200008EB
:10016000C5200008C5200008C5200008C5200008DB
:10017000C5200008C5200008C520000800000000B8
:08018000C5200008C52000089D
:1001900010B5054C237833B9044B13B10448AFF3C1
:1001A00000800123237010BD040200200000000025
:1001B000C4AF000808B5034B1BB103490348AFF3B4
:1001C000008008BD0000000008020020C4AF000845
:1001D00001F0FF01102A2BDB10F0070F08D010F8F8
:1001E000013B013A8B422DD010F0070F42B3F6D1FC
:1001F000F0B441EA012141EA014122F007047FF015
:1002000000070023F0E80256083C85EA010586EA6B
:10021000010685FA47F5A3FA87F586FA47F6A5FAA7
:1002200087F68EB9EED1F0BC01F0FF0102F00702B3
:1002300032B110F8013B013A83EA010313B1F8D15E
:100240000020704701387047002D06BF354603383F
:10025000073815F0010F07D1013015F4807F02BF78
:10026000013015F4C03F0130F0BC0138704700BFC9
:10027000034613F8012B002AFBD1181A01387047E6
:1002800081F0004102E000BF83F0004330B54FEA47
:1002900041044FEA430594EA050F08BF90EA020FB4
:1002A0001FBF54EA000C55EA020C7FEA645C7FEA47
:1002B000655C00F0E2804FEA5454D4EB5555B8BF6A
:1002C0006D420CDD2C4480EA020281EA030382EADB
:1002D000000083EA010180EA020281EA0303362D6D
:1002E00088BF30BD11F0004F4FEA01314FF4801C40
:1002F0004CEA113102D0404261EB410113F0004F52
:100300004FEA03334CEA133302D0524263EB430308
:1003100094EA050F00F0A780A4F10104D5F1200EA6
:100320000DDB02FA0EFC22FA05F2801841F1000101
:1003300003FA0EF2801843FA05F359410EE0A5F1D5
:1003400020050EF1200E012A03FA0EFC28BF4CF006
:10035000020C43FA05F3C01851EBE37101F00045BC
:1003600007D54FF0000EDCF1000C7EEB00006EEBC9
:100370000101B1F5801F1BD3B1F5001F0CD3490853
:100380005FEA30004FEA3C0C04F101044FEA4452AA
:1003900012F5800F80F09A80BCF1004F08BF5FEA31
:1003A000500C50F1000041EB045141EA050130BD11
:1003B0005FEA4C0C404141EB0101013C28BFB1F523
:1003C000801FE9D291F0000F04BF01460020B1FA6E
:1003D00081F308BF2033A3F10B03B3F120020CDA41
:1003E0000C3208DD02F1140CC2F10C0201FA0CF01F
:1003F00021FA02F10CE002F11402D8BFC2F1200C84
:1004000001FA02F120FA0CFCDCBF41EA0C01904039
:10041000E41AA2BF01EB0451294330BD6FEA040482
:100420001F3C1CDA0C340EDC04F11404C4F120026D
:1004300020FA04F001FA02F340EA030021FA04F37F
:1004400045EA030130BDC4F10C04C4F1200220FAD6
:1004500002F001FA04F340EA0300294630BD21FA14
:1004600004F0294630BD94F0000F83F4801306BFDA
:1004700081F480110134013D4EE77FEA645C18BFCE
:100480007FEA655C29D094EA050F08BF90EA020F65
:1004900005D054EA000C04BF1946104630BD91EA5D
:1004A000030F1EBF0021002030BD5FEA545C05D160
:1004B0004000494128BF41F0004130BD14F580049F
:1004C0003CBF01F5801130BD01F0004545F0FE4113
:1004D00041F470014FF0000030BD7FEA645C1ABF48
:1004E000194610467FEA655C1CBF0B46024650EA7F
:1004F000013406BF52EA033591EA030F41F40021AB
:1005000030BD00BF90F0000F04BF0021704730B530
:100510004FF4806404F132044FF000054FF0000105
:1005200050E700BF90F0000F04BF0021704730B5C6
:100530004FF4806404F1320410F0004548BF40429B
:100540004FF000013EE700BF42004FEAE2014FEAF0
:1005500031014FEA02701FBF12F07F4393F07F4FCB
:1005600081F06051704732F07F4208BF704793F0CE
:100570007F4F04BF41F40021704730B54FF46074E1
:1005800001F0004521F000411CE700BF50EA0102E4
:1005900008BF704730B54FF000050AE050EA01028D
:1005A00008BF704730B511F0004502D5404261EBFD
:1005B00041014FF4806404F132045FEA915C3FF43E
:1005C000D8AE4FF003025FEADC0C18BF03325FEADB
:1005D000DC0C18BF033202EBDC02C2F1200300FA8C
:1005E00003FC20FA02F001FA03FE40EA0E0021FAB1
:1005F00002F11444BDE600BF70B54FF0FF0C4CF49F
:10060000E06C1CEA11541DBF1CEA135594EA0C0F50
:1006100095EA0C0F00F0DEF82C4481EA030621EA8B
:100620004C5123EA4C5350EA013518BF52EA0335C6
:1006300041F4801143F4801338D0A0FB02CE4FF078
:100640000005E1FB02E506F00042E0FB03E54FF0A8
:100650000006E1FB03569CF0000F18BF4EF0010EA0
:10066000A4F1FF04B6F5007F64F5407404D25FEA9C
:100670004E0E6D4146EB060642EAC62141EA55514F
:100680004FEAC52040EA5E504FEACE2EB4F1FD0C91
:1006900088BFBCF5E06F1ED8BEF1004F08BF5FEA0F
:1006A000500E50F1000041EB045170BD06F00046C1
:1006B00046EA010140EA020081EA0301B4EB5C046E
:1006C000C2BFD4EB0C0541EA045170BD41F4801166
:1006D0004FF0000E013C00F3AB8014F1360FDEBF8B
:1006E000002001F0004170BDC4F10004203C35DA67
:1006F0000C341BDC04F11404C4F1200500FA05F3EA
:1007000020FA04F001FA05F240EA020001F000428A
:1007100021F0004110EBD37021FA04F642EB060100
:100720005EEA430E08BF20EAD37070BDC4F10C042A
:10073000C4F1200500FA04F320FA05F001FA04F2EE
:1007400040EA020001F0004110EBD37041F10001DA
:100750005EEA430E08BF20EAD37070BDC4F12005E5
:1007600000FA05F24EEA020E20FA04F301FA05F24D
:1007700043EA020321FA04F001F0004121FA04F2F5
:1007800020EA020000EBD3705EEA430E08BF20EAC5
:10079000D37070BD94F0000F0FD101F000464000FF
:1007A00041EB010111F4801F08BF013CF7D041EA81
:1007B000060195F0000F18BF704703F00046520085
:1007C00043EB030313F4801F08BF013DF7D043EA56
:1007D0000603704794EA0C0F0CEA135518BF95EA0C
:1007E0000C0F0CD050EA410618BF52EA4306D1D193
:1007F00081EA030101F000414FF0000070BD50EAB2
:10080000410606BF1046194652EA430619D094EA3B
:100810000C0F02D150EA013613D195EA0C0F05D125
:1008200052EA03361CBF104619460AD181EA030179
:1008300001F0004141F0FE4141F470014FF0000031
:1008400070BD41F0FE4141F4780170BD70B54FF0CC
:10085000FF0C4CF4E06C1CEA11541DBF1CEA13554C
:1008600094EA0C0F95EA0C0F00F0A7F8A4EB05042E
:1008700081EA030E52EA03354FEA013100F0888025
:100880004FEA03334FF0805545EA131343EA1263EE
:100890004FEA022245EA111545EA10654FEA0026A3
:1008A0000EF000419D4208BF964244F1FD0404F55C
:1008B000407402D25B084FEA3202B61A65EB0305B8
:1008C0005B084FEA32024FF480104FF4002CB6EB75
:1008D000020E75EB030E22BFB61A754640EA0C00F5
:1008E0005B084FEA3202B6EB020E75EB030E22BF35
:1008F000B61A754640EA5C005B084FEA3202B6EB76
:10090000020E75EB030E22BFB61A754640EA9C0034
:100910005B084FEA3202B6EB020E75EB030E22BF04
:10092000B61A754640EADC0055EA060E18D04FEAC2
:10093000051545EA16754FEA06164FEAC30343EA62
:1009400052734FEAC2025FEA1C1CC0D111F4801F2F
:100950000BD141EA00014FF000004FF0004CB6E728
:1009600011F4801F04BF01430020B4F1FD0C88BFC7
:10097000BCF5E06F3FF6AFAEB5EB030C04BFB6EBD2
:10098000020C5FEA500C50F1000041EB045170BDC5
:100990000EF0004E4EEA113114EB5C04C2BFD4EBF2
:1009A0000C0541EA045170BD41F480114FF0000E76
:1009B000013C90E645EA060E8DE60CEA135594EAF2
:1009C0000C0F08BF95EA0C0F3FF43BAF94EA0C0FF5
:1009D0000AD150EA01347FF434AF95EA0C0F7FF46A
:1009E00025AF104619462CE795EA0C0F06D152EABE
:1009F00003353FF4FDAE1046194622E750EA4106A2
:100A000018BF52EA43067FF4C5AE50EA41047FF4B2
:100A10000DAF52EA43057FF4EBAE12E74FF0FF3C17
:100A200006E000BF4FF0010C02E000BF4FF0010CE8
:100A30004DF804CD4FEA410C7FEA6C5C4FEA430C61
:100A400018BF7FEA6C5C1BD001B050EA410C0CBFB0
:100A500052EA430C91EA030F02BF90EA020F002012
:100A6000704710F1000F91EA030F58BF994208BF79
:100A700090422CBFD8176FEAE37040F00100704736
:100A80004FEA410C7FEA6C5C02D150EA013C07D18D
:100A90004FEA430C7FEA6C5CD6D152EA033CD3D0D8
:100AA0005DF8040B704700BF8446104662468C46D2
:100AB0001946634600E000BF01B5FFF7B7FF002805
:100AC00048BF10F1000F01BD4DF808EDFFF7F4FF2E
:100AD0000CBF012000205DF808FB00BF4DF808EDB9
:100AE000FFF7EAFF34BF012000205DF808FB00BFDC
:100AF0004DF808EDFFF7E0FF94BF012000205DF8FE
:100B000008FB00BF4DF808EDFFF7CEFF94BF0120B2
:100B100000205DF808FB00BF4DF808EDFFF7C4FFAB
:100B200034BF012000205DF808FB00BF4FEA410CF4
:100B30007FEA6C5C02D150EA013C0AD14FEA430CD7
:100B40007FEA6C5C02D152EA033C02D14FF0000014
:100B500070474FF0010070474FEA410212F5001252
:100B600015D211D56FF47873B3EB625212D94FEAF4
:100B7000C12343F0004343EA505311F0004F23FADE
:100B800002F018BF404270474FF00000704750EA33
:100B9000013005D111F0004008BF6FF000407047F0
:100BA0004FF00000704700BF4A0011D212F500124A
:100BB00011D20DD56FF47873B3EB62520ED44FEAB5
:100BC000C12343F0004343EA505323FA02F0704735
:100BD0004FF00000704750EA013002D14FF0FF3073
:100BE00070474FF0000070474FEA4102B2F1E04316
:100BF00024BFB3F5001CDCF1FE5C0DD901F0004C04
:100C00004FEAC0024CEA5070B2F1004F40EB830053
:100C100008BF20F00100704711F0804F21D113F17F
:100C20003872BCBF01F00040704741F480114FEAB8
:100C30005252C2F11802C2F1200C10FA0CF320FA41
:100C400002F018BF40F001004FEAC1234FEAD3235E
:100C500003FA0CFC40EA0C0023FA02F34FEA4303C8
:100C6000CCE77FEA625307D150EA01331EBF4FF051
:100C7000FE4040F44000704701F0004040F0FE406C
:100C800040F40000704700BF53B94AB9002908BFBB
:100C900000281CBF4FF0FF314FF0FF3000F0A6B925
:100CA000ADF1080C6DE904CE00F03CF8DDF804E08D
:100CB000DDE9022304B0704738B500220023044662
:100CC0000D46FFF70BFF28B920462946BDE83840FE
:100CD00000F00AB8204605F1004100F005F8404256
:100CE00061EB410138BD00BFD0B50C4B0022064678
:100CF0000F46FFF781FCFFF757FF0446FFF702FCA2
:100D0000074B0022FFF778FC02460B463046394677
:100D1000FFF7BAFAFFF748FF2146D0BD0000F03DCB
:100D20000000F0412DE9F047089E0D4604460F46AD
:100D3000002B4AD18A42944665D9B2FA82F343B174
:100D400002FA03FCC3F120029F4020FA02F217438B
:100D50009C404FEA1C4E1FFA8CF5B7FBFEF1220CAB
:100D60000EFB117742EA074201FB05F090420AD9D7
:100D70001CEB020201F1FF3780F01C81904240F22F
:100D8000198102396244121AA4B2B2FBFEF00EFBC2
:100D9000102244EA024400FB05F5A5420AD91CEBE7
:100DA000040400F1FF3280F00781A54240F2048183
:100DB0006444023840EA0140641B00211EB1DC405B
:100DC0000023C6E90043BDE8F0878B4208D9002E16
:100DD00000F0ED800021C6E900050846BDE8F08777
:100DE000B3FA83F1002949D1AB4202D3824200F227
:100DF000F880841A65EB030201201746002EE2D02A
:100E0000C6E90047DFE702B9FFDEB2FA82F3002B42
:100E100040F090808A1A4FEA1C471FFA8CFE01218D
:100E2000B2FBF7F507FB1520220C42EA00420EFB4D
:100E300005F0904208D91CEB020205F1FF3802D2FE
:100E4000904200F2CB804546121AA4B2B2FBF7F0F2
:100E500007FB102244EA02440EFB00FEA64508D917
:100E60001CEB040400F1FF3202D2A64500F2BB8065
:100E70001046A4EB0E0440EA05409FE7C1F12007AD
:100E80008B4022FA07FC4CEA030C05FA01F420FA25
:100E900007F3FD404FEA1C492343B5FBF9F81FFA5D
:100EA0008CFE09FB18551C0C44EA054408FB0EF5A2
:100EB000A54202FA01F200FA01F00BD91CEB04047E
:100EC00008F1FF3A80F08880A54240F28580A8F1C1
:100ED00002086444641B9DB2B4FBF9F309FB13449C
:100EE00045EA044403FB0EFEA64508D91CEB0404A6
:100EF00003F1FF356CD2A6456AD9023B644443EA4C
:100F00000843A3FB0295A4EB0E04AC42C846AE46D0
:100F100056D353D056B1B0EB080264EB0E0404FA7A
:100F200007F7CA40CC401743C6E9007418460021B1
:100F3000BDE8F087C3F1200102FA03FC20FA01F2B8
:100F400025FA01F19D402A434FEA1C471FFA8CFE07
:100F5000B1FBF7F007FB1015110C41EA054100FB4E
:100F60000EF58D4204FA03F408D91CEB010100F1DF
:100F7000FF382FD28D422DD902386144491B92B2DD
:100F8000B1FBF7F507FB151142EA014205FB0EF133
:100F9000914208D91CEB020205F1FF3816D29142AA
:100FA00014D9023D6244521A45EA004138E73146FD
:100FB000304608E73946E6E61046FBE64845A9D242
:100FC000B9EB020865EB0C0E013BA3E74546EAE7E7
:100FD0002B4694E74046D1E7D0467BE7023D62448A
:100FE00032E708460AE76444023842E7704700BF28
:100FF00080B582B000AF474B1B68013B032B7CD808
:1010000001A252F823F000BF191000083F10000899
:101010006B100008D5100008002208213E4801F09E
:101020002BFF002220213C4801F026FF00F078F839
:101030000346012B63D1374B02221A605FE0012285
:101040000821354801F018FF00222021324801F024
:1010500013FF00F079F80346012B52D12D4B0322E8
:101060001A60642000F016FC4BE0002208212A4898
:1010700001F002FF01222021274801F0FDFE274B4D
:101080001B68012B3FD100237B601CE0012208215B
:10109000214801F0F1FE002220211F4801F0ECFE62
:1010A000FA2001F083F8002208211B4801F0E4FE39
:1010B00001222021184801F0DFFEFA2001F076F825
:1010C0007B6801337B607B68132BDFDD114B0422CF
:1010D0001A6018E0002208210F4801F0CDFE01221D
:1010E00020210D4801F0C8FE00F042F80346012B14
:1010F0000BD1084B01221A6007E000BF06E000BFD9
:1011000004E000BF02E000BF00E000BF00BF0837FE
:10111000BD4680BD2C020020000002405C0400207F
:1011200080B400AF074B1B68012B04D1054B002294
:101130001A60012300E000231846BD465DF8047BD9
:10114000704700BF2002002080B400AF074B1B682F
:10115000012B04D1054B00221A60012300E000237B
:101160001846BD465DF8047B704700BF240200208E
:1011700080B400AF074B1B68012B04D1054B002244
:101180001A60012300E000231846BD465DF8047B89
:10119000704700BF2802002080B500AF444B1B6899
:1011A000444A1360444B1B68414A13600221434880
:1011B00001F04AFE03461A463F4B1A603D4B1A683F
:1011C0003B4B1B689A4216D1394B1A683A4B1B6845
:1011D0009A4210D13A4B1A68374B1B689A420AD090
:1011E000354B1B68364A1360334B1B68002B02D10A
:1011F000344B01221A60344B1B68344A1360344B61
:101200001B68314A136004212C4801F01DFE03467F
:101210001A462F4B1A602D4B1A682B4B1B689A42AB
:1012200016D1294B1A682A4B1B689A4210D1294BB8
:101230001A68274B1B689A420AD0254B1B68254A1F
:101240001360234B1B68002B02D1234B01221A6031
:10125000224B1B68224A1360224B1B681F4A1360F3
:101260000821164801F0F0FD03461A461D4B1A608E
:101270001B4B1A68194B1B689A4216D1174B1A68F8
:10128000184B1B689A4210D1174B1A68154B1B68F4
:101290009A420AD0134B1B68134A1360114B1B6808
:1012A000002B02D1114B01221A6000BF80BD00BF8C
:1012B0000400002000000020080000200008024078
:1012C0000C0000202002002014000020100000204C
:1012D000180000201C000020240200202400002010
:1012E00020000020280000202C00002028020020E0
:1012F00080B59AB000AF00F0E7FE00F033F800F0E0
:101300003FFA00F007FA00F0E5F800F05BF900F0B2
:1013100093F800F0ABF900F0D3F90E4802F0AEFA02
:1013200004210D4802F074FB04210C4802F0DEFC9D
:10133000391D4FF0FF336422094803F003FC0346D4
:10134000002B03D13B1D184600F0D4FAFFF750FEE6
:10135000EEE700BF3002002078020020C00200202B
:101360000803002080B594B000AF07F120033022BD
:101370000021184605F06DFB07F10C0300221A60EE
:101380005A609A60DA601A610023BB60284B1B6CBC
:10139000274A43F080531364254B1B6C03F08053A2
:1013A000BB60BB6800237B60224B1B68214A43F46F
:1013B000804313601F4B1B6803F480437B607B6892
:1013C00001233B624FF480337B620223BB634FF403
:1013D0008003FB6304233B64A8237B640223BB6478
:1013E0000423FB6407F12003184601F05FFD034668
:1013F000002B01D000F048FA0F23FB6002233B6171
:1014000000237B614FF4A053BB614FF48053FB6119
:1014100007F10C030521184601F0C0FF0346002B1D
:1014200001D000F031FA00BF5037BD4680BD00BF8B
:10143000003802400070004080B586B000AF07F170
:10144000080300221A605A609A60DA603B46002264
:101450001A605A601E4B4FF080421A601C4B40F2DB
:101460008F625A601A4B00229A60194B40F2E732A1
:10147000DA60174B00221A61154B00229A6114485A
:1014800002F0ACF90346002B01D000F0FDF94FF457
:101490008053BB6007F1080319460D4802F066FE51
:1014A0000346002B01D000F0EFF900233B6000233E
:1014B0007B603B461946064803F064FA0346002B5E
:1014C00001D000F0E1F900BF1837BD4680BD00BF74
:1014D0003002002080B58EB000AF07F12803002253
:1014E0001A605A609A60DA6007F1200300221A60DD
:1014F0005A603B1D00221A605A609A60DA601A61D5
:101500005A619A612D4B2E4A1A602C4B40F28F6221
:101510005A602A4B00229A60284B40F2CF72DA6060
:10152000264B00221A61254B00229A61234802F0C3
:1015300055F90346002B01D000F0A6F94FF4805373
:10154000BB6207F1280319461C4802F00FFE034650
:10155000002B01D000F098F9184802F0FFF903467B
:10156000002B01D000F090F900233B6200237B6246
:1015700007F120031946114803F004FA0346002B33
:1015800001D000F081F960237B600023BB60002361
:10159000FB6000237B613B1D04221946074802F0D3
:1015A00023FD0346002B01D000F06EF9034800F044
:1015B000E3FA00BF3837BD4680BD00BF7802002087
:1015C0000004004080B58CB000AF07F10C0324226A
:1015D0000021184605F03DFA3B1D00221A605A60B2
:1015E000204B214A1A601F4B00225A601D4B0022DB
:1015F0009A601C4B4FF6FF72DA601A4B00221A6198
:10160000184B00229A610323FB6000233B610123F6
:101610007B610023BB610023FB6100233B6201234C
:101620007B620023BB620023FB6207F10C031946B7
:101630000C4802F0B5FA0346002B01D000F024F963
:1016400000237B600023BB603B1D1946054803F067
:1016500099F90346002B01D000F016F900BF30378E
:10166000BD4680BDC00200200008004080B500AF2C
:10167000114B124A1A60104B4FF416525A600E4B1F
:1016800000229A600C4B0022DA600B4B00221A6198
:10169000094B0C225A61084B00229A61064B00222A
:1016A000DA61054803F0FEF90346002B01D000F093
:1016B000EBF800BF80BD00BF080300200010014010
:1016C00080B500AF114B124A1A60104B4FF41652FE
:1016D0005A600E4B00229A600C4B0022DA600B4BD2
:1016E00000221A61094B0C225A61084B00229A61B0
:1016F000064B0022DA61054803F0D4F90346002BBB
:1017000001D000F0C1F800BF80BD00BF5003002031
:101710000044004080B582B000AF00237B60174BCF
:101720001B6B164A43F480031363144B1B6B03F4C7
:1017300080037B607B6800233B60104B1B6B0F4A70
:1017400043F4001313630D4B1B6B03F400133B6056
:101750003B6800220021112000F027FE112000F03C
:1017600040FE002200213A2000F01FFE3A2000F047
:1017700038FE00BF0837BD4680BD00BF00380240BC
:1017800080B58AB000AF07F1140300221A605A60D6
:101790009A60DA601A6100233B61324B1B6B314A5D
:1017A00043F0800313632F4B1B6B03F080033B61FB
:1017B0003B690023FB602B4B1B6B2A4A43F004035D
:1017C0001363284B1B6B03F00403FB60FB680023CF
:1017D000BB60244B1B6B234A43F001031363214B73
:1017E0001B6B03F00103BB60BB6800237B601D4BD8
:1017F0001B6B1C4A43F0080313631A4B1B6B03F06B
:1018000008037B607B6800222821174801F034FB25
:101810000E237B610023BB610123FB6107F11403ED
:101820001946124801F074F901237B610023BB6162
:101830000023FB6107F1140319460B4801F068F916
:1018400028237B610123BB610023FB6100233B62F2
:1018500007F114031946044801F05AF900BF28376C
:10186000BD4680BD00380240000002400008024032
:1018700080B582B000AF786000F020F8FFF78CFCF4
:1018800000BF0837BD4680BD80B400AF72B600BF50
:10189000FEE7000080B483B000AF7860054A7B6843
:1018A0001360054B00221A6000BF0C37BD465DF87F
:1018B000047B7047580400205C04002080B400AF13
:1018C0000A4B1B68002B04DD084B1B68013B074AD1
:1018D0001360064B1B68002B02D1054B01221A60D6
:1018E00000BFBD465DF8047B704700BF5804002070
:1018F0005C04002080B588B002AF786007F10C016D
:1019000007F1100207F1080300930B460D497868B0
:1019100005F02EF8D7ED047A97ED037AD7ED026A39
:10192000B0EE661AF0EE470AB0EE670A00F00CF867
:1019300087ED050A97ED050A00F042F800BF183759
:10194000BD4680BDE0AF0008B0B586B000AF87ED02
:10195000030AC7ED020A87ED011AF868FEF7F4FDE5
:1019600004460D46B868FEF7EFFD02460B4643EC11
:10197000112B45EC104B09F0AFF853EC102B10462F
:101980001946FFF731F903467B617869FEF7DCFD04
:1019900009A3D3E90023FEF72FFE02460B461046AB
:1019A0001946FFF721F9034607EE903AB0EE670AB1
:1019B0001837BD46B0BD00BFF8C1631ADCA54C4066
:1019C00080B584B000AF87ED010A7868FEF7BCFDF2
:1019D0004FF00002104BFEF70FFE02460B4610467A
:1019E00019460BA3D3E90023FEF750FC02460B4631
:1019F00010461946FFF7D8F80346FB60074B1B68F3
:101A0000FA689A6300BF1037BD4680BDAFF300800F
:101A10000000000000C052400000F83F78020020A3
:101A200080B483B000AF00237B60104B5B6C0F4A27
:101A300043F4804353640D4B5B6C03F480437B6041
:101A40007B6800233B60094B1B6C084A43F08053C2
:101A50001364064B1B6C03F080533B603B6800BF74
:101A60000C37BD465DF8047B704700BF003802406C
:101A700080B584B000AF78607B681B68B3F1804F9D
:101A800016D10023FB60164B1B6C154A43F0010373
:101A90001364134B1B6C03F00103FB60FB68002213
:101AA00000211C2000F081FC1C2000F09AFC12E0B8
:101AB0007B681B680B4A93420DD10023BB60084B27
:101AC0001B6C074A43F002031364054B1B6C03F0C5
:101AD0000203BB60BB6800BF1037BD4680BD00BFBE
:101AE000003802400004004080B58AB000AF786042
:101AF00007F1140300221A605A609A60DA601A61D2
:101B00007B681B68194A93422CD100233B61184B18
:101B10001B6C174A43F004031364154B1B6C03F052
:101B200004033B613B690023FB60114B1B6B104AB4
:101B300043F0080313630E4B1B6B03F00803FB60B9
:101B4000FB684FF440537B610223BB610123FB61BF
:101B500000233B6202237B6207F114031946054808
:101B600000F0D6FF00BF2837BD4680BD000800400A
:101B700000380240000C024080B588B000AF7860A9
:101B800007F10C0300221A605A609A60DA601A6149
:101B90007B681B68124A93421DD10023BB60114B26
:101BA0001B6B104A43F0010313630E4B1B6B03F0D6
:101BB0000103BB60BB688023FB6002233B61002301
:101BC0007B610023BB610223FB6107F10C03194613
:101BD000054800F09DFF00BF2037BD4680BD00BF17
:101BE00000040040003802400000024080B58CB084
:101BF00000AF786007F11C0300221A605A609A60F7
:101C0000DA601A617B681B68774A934263D10023CC
:101C1000BB61764B5B6C754A43F010035364734BA6
:101C20005B6C03F01003BB61BB6900237B616F4BEE
:101C30001B6B6E4A43F0010313636C4B1B6B03F089
:101C400001037B617B694FF4C063FB6102233B624C
:101C500000237B620323BB620723FB6207F11C03A3
:101C60001946634800F054FF624B634A1A60614BA7
:101C70004FF000625A605F4B00229A605D4B002279
:101C8000DA605C4B4FF480621A615A4B00225A6151
:101C9000584B00229A61574B0022DA61554B0022C3
:101CA0001A62544B00225A62524800F0B5FB0346B8
:101CB000002B01D0FFF7E8FD7B684E4ADA634D4AFE
:101CC0007B68936300220021252000F06EFB252015
:101CD00000F087FB84E07B681B68484A93427FD111
:101CE00000233B61414B1B6C404A43F400331364B7
:101CF0003E4B1B6C03F400333B613B690023FB60EC
:101D00003A4B1B6B394A43F001031363374B1B6B90
:101D100003F00103FB60FB680023BB60334B1B6BCC
:101D2000324A43F008031363304B1B6B03F0080384
:101D3000BB60BB680423FB6102233B6200237B6220
:101D40000323BB620723FB6207F11C0319462848E3
:101D500000F0DEFE4023FB6102233B6200237B6236
:101D60000323BB620723FB6207F11C0319462448C7
:101D700000F0CEFE234B244A1A60224B4FF0006243
:101D80005A60204B40229A601E4B0022DA601D4BA5
:101D90004FF480621A611B4B00225A61194B0022DA
:101DA0009A61184B0022DA61164B00221A62154B19
:101DB00000225A62134800F02FFB0346002B01D08B
:101DC000FFF762FD7B680F4A9A630E4A7B68936354
:101DD00000220021262000F0E8FA262000F001FB76
:101DE00000BF3037BD4680BD0010014000380240C2
:101DF000000002409803002040640240004400407C
:101E0000000C0240F8030020A060024080B400AF44
:101E1000FEE780B400AFFEE780B400AFFEE780B419
:101E200000AFFEE780B400AFFEE780B400AF00BFB4
:101E3000BD465DF8047B704780B400AF00BFBD466F
:101E40005DF8047B704780B400AF00BFBD465DF80D
:101E5000047B704780B500AF00F088F900BF80BDFB
:101E600080B500AF024800F017FC00BF80BD00BF86
:101E7000F803002080B500AF024801F0C5FF00BFA5
:101E800080BD00BF3002002080B500AF024802F0E4
:101E9000F1FE00BF80BD00BF0803002080B500AF89
:101EA000024802F0E7FE00BF80BD00BF50030020E3
:101EB00080B500AF024800F0EFFB00BF80BD00BF5F
:101EC0009803002080B400AF01231846BD465DF89A
:101ED000047B704780B582B000AF7860396004F051
:101EE0000BFE034616221A604FF0FF3318460837E0
:101EF000BD4680BD80B582B000AF78604FF0FF3145
:101F00007868FFF7E7FFFEE780B586B000AFF860BE
:101F1000B9607A6000237B610AE0AFF3008001467C
:101F2000BB685A1CBA60CAB21A707B6901337B6104
:101F30007A697B689A42F0DB7B6818461837BD46A1
:101F400080BD80B586B000AFF860B9607A600023CC
:101F50007B6109E0BB685A1CBA601B781846AFF376
:101F600000807B6901337B617A697B689A42F1DB8F
:101F70007B6818461837BD4680BD80B483B000AF7B
:101F800078604FF0FF3318460C37BD465DF8047B90
:101F9000704780B483B000AF786039603B684FF41D
:101FA00000525A60002318460C37BD465DF8047B8A
:101FB000704780B483B000AF7860012318460C37B7
:101FC000BD465DF8047B704780B485B000AFF86013
:101FD000B9607A60002318461437BD465DF8047B6B
:101FE0007047000080B586B000AF7860144A154B8A
:101FF000D31A7B617B693B61134B1B68002B02D1B9
:10200000114B124A1A60104B1A687B6813443A69E4
:102010009A4207D204F070FD03460C221A604FF07A
:10202000FF3309E0084B1B68FB60074B1A687B68AD
:102030001344054A1360FB6818461837BD4680BD37
:10204000000002200004000060040020B805002009
:1020500080B400AF064BD3F88830054A43F47003D0
:10206000C2F8883000BFBD465DF8047B704700BFF2
:1020700000ED00E0DFF834D0FFF7EAFF0C480D492F
:102080000D4A002302E0D458C4500433C4188C42D3
:10209000F9D30A4A0A4C002301E013600432A24239
:1020A000FBD304F02FFDFFF723F970470000022057
:1020B0000000002004020020E0B400080402002018
:1020C000B4050020FEE7000080B500AF0E4B1B6892
:1020D0000D4A43F4007313600B4B1B680A4A43F428
:1020E00080631360084B1B68074A43F480731360D6
:1020F000032000F04FF90F2000F008F8FFF790FCE4
:102100000023184680BD00BF003C024080B582B06D
:1021100000AF7860124B1A68124B1B7819464FF4C7
:102120007A73B3FBF1F3B2FBF3F3184600F067F9EF
:102130000346002B01D001230EE07B680F2B0AD849
:10214000002279684FF0FF3000F02FF9064A7B68D3
:102150001360002300E0012318460837BD4680BD08
:1021600030000020380000203400002080B400AF90
:10217000064B1B781A46064B1B681344044A13602F
:1021800000BFBD465DF8047B704700BF38000020EB
:102190006404002080B400AF034B1B681846BD46A2
:1021A0005DF8047B704700BF6404002080B584B0F4
:1021B00000AF7860FFF7EEFFB8607B68FB60FB68FC
:1021C000B3F1FF3F05D00A4B1B781A46FB68134456
:1021D000FB6000BFFFF7DEFF0246BB68D31AFA6858
:1021E0009A42F7D800BF00BF1037BD4680BD00BF80
:1021F0003800002080B485B000AF78607B6803F0C1
:102200000703FB600C4BDB68BB60BA684FF6FF034B
:102210001340BB60FB681A02BB68134343F0BF6303
:1022200043F40033BB60044ABB68D36000BF14377B
:10223000BD465DF8047B704700ED00E080B400AF60
:10224000044BDB681B0A03F007031846BD465DF824
:10225000047B704700ED00E080B483B000AF03461C
:10226000FB7197F90730002B0BDBFB7903F01F02A2
:10227000074997F907305B09012000FA02F241F89B
:10228000232000BF0C37BD465DF8047B704700BFBC
:1022900000E100E080B483B000AF03463960FB7119
:1022A00097F90730002B0ADB3B68DAB20C4997F943
:1022B00007301201D2B20B4483F800230AE03B68D6
:1022C000DAB20849FB7903F00F03043B1201D2B2E2
:1022D0000B441A7600BF0C37BD465DF8047B70478F
:1022E00000E100E000ED00E080B489B000AFF860EC
:1022F000B9607A60FB6803F00703FB61FB69C3F117
:102300000703042B28BF0423BB61FB690433062B9E
:1023100002D9FB69033B00E000237B614FF0FF32F1
:10232000BB6902FA03F3DA43BB681A407B699A403F
:102330004FF0FF317B6901FA03F3D9437B680B400F
:10234000134318462437BD465DF8047B70470000F0
:1023500080B582B000AF78607B68013BB3F1807FCD
:1023600001D301230FE00A4A7B68013B53600F2130
:102370004FF0FF30FFF78EFF054B00229A60044BB1
:1023800007221A60002318460837BD4680BD00BFEB
:1023900010E000E080B582B000AF78607868FFF7A9
:1023A00029FF00BF0837BD4680BD80B586B000AFAD
:1023B0000346B9607A60FB7300237B61FFF73EFF41
:1023C00078617A68B9687869FFF78EFF024697F9F5
:1023D0000F3011461846FFF75DFF00BF1837BD46A6
:1023E00080BD80B582B000AF0346FB7197F907301E
:1023F0001846FFF731FF00BF0837BD4680BD80B5E6
:1024000082B000AF78607868FFF7A2FF03461846F5
:102410000837BD4680BD000080B586B000AF78604B
:1024200000237B61FFF7B6FE38617B68002B01D18A
:10243000012399E07B68022283F835207B68002223
:1024400083F834207B681B681A687B681B6822F05D
:1024500001021A600FE0FFF79DFE02463B69D31AA6
:10246000052B08D97B6820225A657B68032283F8F4
:102470003520032378E07B681B681B6803F00103A9
:10248000002BE8D17B681B681B687B617A69384B3D
:1024900013407B617B685A687B689B681A437B6842
:1024A000DB681A437B681B691A437B685B691A43C4
:1024B0007B689B691A437B68DB691A437B681B6AEC
:1024C00013437A6913437B617B685B6A042B07D1F2
:1024D0007B68DA6A7B681B6B13437A6913437B6101
:1024E0007B681B687A691A607B681B685B697B6123
:1024F0007B6923F007037B617B685B6A7A6913431E
:102500007B617B685B6A042B17D17B689B6A7A6965
:1025100013437B617B68DB6A002B0ED0786800F088
:102520007BFA0346002B08D07B6840225A657B6803
:10253000012283F83520012316E07B681B687A6945
:102540005A61786800F032FA0346FB607B68DB6D05
:102550003F229A40FB689A607B6800225A657B683C
:10256000012283F83520002318461837BD4680BD68
:102570003F8010F080B584B000AF78607B689B6DC1
:10258000FB60FFF707FEB8607B6893F83530DBB27D
:10259000022B08D07B6880225A657B68002283F872
:1025A0003420012352E07B681B681A687B681B6833
:1025B00022F016021A607B681B685A697B681B68E8
:1025C00022F080025A617B681B6C002B03D17B6870
:1025D0009B6C002B07D07B681B681A687B681B68A4
:1025E00022F008021A607B681B681A687B681B6807
:1025F00022F001021A6013E0FFF7CCFD0246BB682F
:10260000D31A052B0CD97B6820225A657B680322DC
:1026100083F835207B68002283F83420032315E0FB
:102620007B681B681B6803F00103002BE4D17B6807
:10263000DB6D3F229A40FB689A607B68012283F839
:1026400035207B68002283F8342000231846103799
:10265000BD4680BD80B483B000AF78607B6893F8DE
:102660003530DBB2022B04D07B6880225A6501230F
:102670000CE07B68052283F835207B681B681A68AC
:102680007B681B6822F001021A60002318460C3791
:10269000BD465DF8047B704780B586B000AF7860BA
:1026A0000023BB608E4B1B688E4AA2FB03239B0A50
:1026B0007B617B689B6D3B613B691B68FB607B6852
:1026C000DB6D08229A40FB681340002B1AD07B6810
:1026D0001B681B6803F00403002B13D07B681B6886
:1026E0001A687B681B6822F004021A607B68DB6D45
:1026F00008229A403B699A607B685B6D43F0010257
:102700007B685A657B68DB6D01229A40FB68134049
:10271000002B12D07B681B685B6903F08003002BE1
:102720000BD07B68DB6D01229A403B699A607B6825
:102730005B6D43F002027B685A657B68DB6D0422A7
:102740009A40FB681340002B12D07B681B681B6803
:1027500003F00203002B0BD07B68DB6D04229A4050
:102760003B699A607B685B6D43F004027B685A6545
:102770007B68DB6D10229A40FB681340002B43D02E
:102780007B681B681B6803F00803002B3CD07B6848
:10279000DB6D10229A403B699A607B681B681B685E
:1027A00003F48023002B18D07B681B681B6803F49C
:1027B0000023002B08D17B681B6C002B24D07B6886
:1027C0001B6C786898471FE07B689B6C002B1BD0C4
:1027D0007B689B6C7868984716E07B681B681B6871
:1027E00003F48073002B07D17B681B681A687B6831
:1027F0001B6822F008021A607B681B6C002B03D058
:102800007B681B6C786898477B68DB6D20229A4058
:10281000FB681340002B00F08F807B681B681B68EF
:1028200003F01003002B00F087807B68DB6D202213
:102830009A403B699A607B6893F83530DBB2052B90
:1028400036D17B681B681A687B681B6822F0160209
:102850001A607B681B685A697B681B6822F08002DB
:102860005A617B681B6C002B03D17B689B6C002B2F
:1028700007D07B681B681A687B681B6822F0080217
:102880001A607B68DB6D3F229A403B699A607B68E7
:10289000012283F835207B68002283F834207B688E
:1028A0001B6D002B7ED07B681B6D7868984779E0A4
:1028B0007B681B681B6803F48023002B1DD07B689A
:1028C0001B681B6803F40023002B0DD17B685B6C35
:1028D000002B31D07B685B6C786898472CE000BF98
:1028E00030000020B5814E1B7B68DB6B002B23D0B2
:1028F0007B68DB6B786898471EE07B681B681B6809
:1029000003F48073002B0FD17B681B681A687B6807
:102910001B6822F010021A607B68012283F83520C0
:102920007B68002283F834207B68DB6B002B03D0AC
:102930007B68DB6B786898477B685B6D002B32D0D7
:102940007B685B6D03F00103002B22D07B680522BE
:1029500083F835207B681B681A687B681B6822F047
:1029600001021A60BB680133BB607A699A4207D3DF
:102970007B681B681B6803F00103002BF2D100E0A9
:1029800000BF7B68012283F835207B68002283F832
:1029900034207B68DB6C002B05D07B68DB6C7868AF
:1029A000984700E000BF1837BD4680BD80B485B0B1
:1029B00000AF78607B681B68DBB2103B144AA2FB57
:1029C00003231B09FB60134AFB6813441B781A4658
:1029D0007B68DA65FB68032B09D97B681B6823F4E5
:1029E0007F7323F003031A1D7B689A6507E07B68F9
:1029F0001B6823F47F7323F003037A6893657B6875
:102A00009B6D18461437BD465DF8047B704700BFC8
:102A1000ABAAAAAA10B0000880B485B000AF786055
:102A20000023FB737B689B6ABB607B689B69002B00
:102A30001FD1BB68032B56D801A252F823F000BF68
:102A4000512A0008632A0008512A0008E72A0008D2
:102A50007B68DB6A03F08073002B46D00123FB7395
:102A600043E07B68DB6AB3F1C07F40D10123FB7395
:102A70003DE07B689B69B3F5005F21D1BB68032B08
:102A800037D801A252F823F0992A00089F2A00089B
:102A9000992A0008B12A00080123FB7330E07B6803
:102AA000DB6A03F08073002B25D00123FB7322E047
:102AB0007B68DB6AB3F1C07F1FD10123FB731CE08D
:102AC000BB68022B03D9BB68032B03D018E001239A
:102AD000FB7315E07B68DB6A03F08073002B0ED07C
:102AE0000123FB730BE000BF0AE000BF08E000BF5A
:102AF00006E000BF04E000BF02E000BF00E000BF4E
:102B0000FB7B18461437BD465DF8047B704700BF59
:102B100080B489B000AF7860396000237B61002306
:102B20003B610023BB610023FB616BE10122FB6978
:102B300002FA03F37B613B681B687A6913403B61CF
:102B40003A697B699A4240F05A813B685B6803F0BE
:102B50000303012B05D03B685B6803F00303022BE2
:102B600030D17B689B68BB61FB695B00032202FA82
:102B700003F3DB43BA691340BB613B68DA68FB6966
:102B80005B0002FA03F3BA691343BB617B68BA695D
:102B90009A607B685B68BB610122FB6902FA03F300
:102BA000DB43BA691340BB613B685B681B0903F0F8
:102BB0000102FB6902FA03F3BA691343BB617B6844
:102BC000BA695A603B685B6803F00303032B17D0B4
:102BD0007B68DB68BB61FB695B00032202FA03F3DD
:102BE000DB43BA691340BB613B689A68FB695B00D1
:102BF00002FA03F3BA691343BB617B68BA69DA600E
:102C00003B685B6803F00303022B23D1FB69DA08FE
:102C10007B68083253F82230BB61FB6903F007037D
:102C20009B000F2202FA03F3DB43BA691340BB6136
:102C30003B681A69FB6903F007039B0002FA03F380
:102C4000BA691343BB61FB69DA087B680832B9696A
:102C500043F822107B681B68BB61FB695B000322A1
:102C600002FA03F3DB43BA691340BB613B685B685C
:102C700003F00302FB695B0002FA03F3BA69134332
:102C8000BB617B68BA691A603B685B6803F44033D8
:102C9000002B00F0B4800023FB60604B5B6C5F4A4C
:102CA00043F4804353645D4B5B6C03F48043FB60EF
:102CB000FB685B4AFB699B08023352F82330BB6117
:102CC000FB6903F003039B000F2202FA03F3DB43CB
:102CD000BA691340BB617B68524A93422BD07B6830
:102CE000514A934225D07B68504A93421FD07B685B
:102CF0004F4A934219D07B684E4A934213D07B6867
:102D00004D4A93420DD07B684C4A934207D07B6872
:102D10004B4A934201D107230EE008230CE006231F
:102D20000AE0052308E0042306E0032304E002236D
:102D300002E0012300E00023FA6902F0030292009E
:102D40009340BA691343BB613549FB699B08023361
:102D5000BA6941F823203B4B9B68BB613B69DB436D
:102D6000BA691340BB613B685B6803F48013002BB6
:102D700003D0BA693B691343BB61324ABB699360B4
:102D8000304BDB68BB613B69DB43BA691340BB6115
:102D90003B685B6803F40013002B03D0BA693B69FE
:102DA0001343BB61274ABB69D360264B5B68BB6199
:102DB0003B69DB43BA691340BB613B685B6803F462
:102DC0000033002B03D0BA693B691343BB611D4A32
:102DD000BB6953601B4B1B68BB613B69DB43BA6932
:102DE0001340BB613B685B6803F48033002B03D066
:102DF000BA693B691343BB61124ABB691360FB6943
:102E00000133FB61FB690F2B7FF690AE00BF00BF63
:102E10002437BD465DF8047B704700BF0038024090
:102E20000038014000000240000402400008024057
:102E3000000C024000100240001402400018024042
:102E4000001C0240003C014080B485B000AF7860B7
:102E50000B467B807B681A697B881340002B02D06D
:102E60000123FB7301E00023FB73FB7B184614373F
:102E7000BD465DF8047B704780B483B000AF7860D6
:102E80000B467B8013467B707B78002B03D07A88BF
:102E90007B689A6103E07B881A047B689A6100BFB3
:102EA0000C37BD465DF8047B7047000080B586B0E6
:102EB00000AF78607B68002B01D1012367E27B685B
:102EC0001B6803F00103002B75D0884B9B6803F04F
:102ED0000C03042B0CD0854B9B6803F00C03082BD0
:102EE00012D1824B5B6803F48003B3F5800F0BD1E2
:102EF0007E4B1B6803F40033002B5BD07B685B6860
:102F0000002B57D1012342E27B685B68B3F5803F19
:102F100006D1764B1B68754A43F4803313601DE07D
:102F20007B685B68B3F5A02F0CD1704B1B686F4AB0
:102F300043F4802313606D4B1B686C4A43F4803369
:102F400013600BE0694B1B68684A23F480331360FD
:102F5000664B1B68654A23F4802313607B685B68BB
:102F6000002B13D0FFF716F9386108E0FFF712F9CC
:102F700002463B69D31A642B01D9032307E25B4B5A
:102F80001B6803F40033002BF0D014E0FFF702F9C4
:102F9000386108E0FFF7FEF802463B69D31A642B5C
:102FA00001D90323F3E1514B1B6803F40033002BD9
:102FB000F0D100E000BF7B681B6803F00203002B28
:102FC00063D04A4B9B6803F00C03002B0BD0474B9C
:102FD0009B6803F00C03082B1CD1444B5B6803F483
:102FE0008003002B16D1414B1B6803F00203002B1A
:102FF00005D07B68DB68012B01D00123C7E13B4B87
:103000001B6823F0F8027B681B69DB003749134318
:103010000B603AE07B68DB68002B20D0344B012248
:103020001A60FFF7B7F8386108E0FFF7B3F8024617
:103030003B69D31A022B01D90323A8E12B4B1B6850
:1030400003F00203002BF0D0284B1B6823F0F8029A
:103050007B681B69DB00254913430B6015E0244B9B
:1030600000221A60FFF796F8386108E0FFF792F83F
:1030700002463B69D31A022B01D9032387E11B4B7C
:103080001B6803F00203002BF0D17B681B6803F080
:103090000803002B36D07B685B69002B16D0154BDC
:1030A00001221A60FFF776F8386108E0FFF772F83E
:1030B00002463B69D31A022B01D9032367E10B4B6C
:1030C0005B6F03F00203002BF0D01BE0094B0022E2
:1030D0001A60FFF75FF838610EE0FFF75BF8024611
:1030E0003B69D31A022B07D9032350E10038024071
:1030F00000004742800E4742884B5B6F03F002039B
:10310000002BEAD17B681B6803F00403002B00F05E
:1031100097800023FB75814B1B6C03F08053002BC1
:103120000FD10023BB607D4B1B6C7C4A43F0805366
:1031300013647A4B1B6C03F08053BB60BB680123A4
:10314000FB75774B1B6803F48073002B18D1744B0D
:103150001B68734A43F480731360FFF71BF83861F0
:1031600008E0FFF717F802463B69D31A022B01D992
:1031700003230CE16A4B1B6803F48073002BF0D02F
:103180007B689B68012B06D1644B1B6F634A43F03D
:10319000010313671CE07B689B68052B0CD15F4B18
:1031A0001B6F5E4A43F0040313675C4B1B6F5B4A63
:1031B00043F0010313670BE0584B1B6F574A23F092
:1031C00001031367554B1B6F544A23F00403136725
:1031D0007B689B68002B15D0FEF7DCFF38610AE0A6
:1031E000FEF7D8FF02463B69D31A41F28832934278
:1031F00001D90323CBE0494B1B6F03F00203002BE3
:10320000EED014E0FEF7C6FF38610AE0FEF7C2FF19
:1032100002463B69D31A41F28832934201D9032313
:10322000B5E03E4B1B6F03F00203002BEED1FB7D9C
:10323000012B05D1394B1B6C384A23F080531364A2
:103240007B689B69002B00F0A180344B9B6803F0E6
:103250000C03082B5CD07B689B69022B41D1314B5E
:1032600000221A60FEF796FF386108E0FEF792FF31
:1032700002463B69D31A022B01D9032387E0274B6F
:103280001B6803F00073002BF0D17B68DA697B6860
:103290001B6A1A437B685B6A9B011A437B689B6AC3
:1032A0005B08013B1B041A437B68DB6A1B061B4956
:1032B00013434B601B4B01221A60FEF76BFF386112
:1032C00008E0FEF767FF02463B69D31A022B01D9DB
:1032D00003235CE0114B1B6803F00073002BF0D05C
:1032E00054E0104B00221A60FEF754FF386108E0EA
:1032F000FEF750FF02463B69D31A022B01D9032384
:1033000045E0064B1B6803F00073002BF0D13DE055
:103310007B689B69012B07D1012338E0003802400C
:1033200000700040600047421B4B5B68FB607B689D
:103330009B69012B28D0FB6803F480027B68DB6962
:103340009A4221D1FB6803F03F027B681B6A9A42D4
:103350001AD1FA6847F6C07313407A68526A92012C
:10336000934211D1FB6803F440327B689B6A5B088F
:10337000013B1B049A4207D1FB6803F070627B6833
:10338000DB6A1B069A4201D0012300E000231846A5
:103390001837BD4680BD00BF0038024080B584B0FC
:1033A00000AF786039607B68002B01D10123CCE04D
:1033B000684B1B6803F007033A689A420CD9654BC7
:1033C0003A68D2B21A70634B1B6803F007033A687D
:1033D0009A4201D00123B8E07B681B6803F0020326
:1033E000002B20D07B681B6803F00403002B05D062
:1033F000594B9B68584A43F4E05393607B681B68C1
:1034000003F00803002B05D0534B9B68524A43F44A
:1034100060439360504B9B6823F0F0027B689B688D
:103420004D4913438B607B681B6803F00103002B3D
:1034300044D07B685B68012B07D1474B1B6803F4C2
:103440000033002B19D101237FE07B685B68022BDE
:1034500003D07B685B68032B07D13F4B1B6803F0ED
:103460000073002B09D101236FE03B4B1B6803F075
:103470000203002B01D1012367E0374B9B6823F047
:1034800003027B685B68344913438B60FEF782FE5E
:10349000F8600AE0FEF77EFE0246FB68D31A41F2AE
:1034A0008832934201D903234FE02B4B9B6803F0F2
:1034B0000C027B685B689B009A42EBD1254B1B6832
:1034C00003F007033A689A420CD2224B3A68D2B210
:1034D0001A70204B1B6803F007033A689A4201D028
:1034E000012332E07B681B6803F00403002B08D043
:1034F000194B9B6823F4E0527B68DB681649134341
:103500008B607B681B6803F00803002B09D0124B0B
:103510009B6823F460427B681B69DB000E49134300
:103520008B6000F021F802460B4B9B681B0903F0EF
:103530000F030A49CB5C22FA03F3094A1360094BD3
:103540001B681846FEF7E2FD002318461037BD46FB
:1035500080BD00BF003C024000380240F8AF0008C8
:1035600030000020340000202DE9B04F94B000AFAF
:1035700000237B640023FB6400233B640023BB64C3
:10358000794B9B6803F00C03082B0DD0082B00F23D
:10359000E180002B02D0042B03D0DBE0734BBB6433
:1035A000DBE0734BBB64D8E06F4B5B6803F03F0319
:1035B0007B646D4B5B6803F48003002B63D06A4B24
:1035C0005B689B090022BB63FA63BB6BC3F3080310
:1035D0003B6300237B63D7E90C4522462B464FF023
:1035E00000004FF00001590141EAD261500102464A
:1035F0000B462146511A3961294663EB01037B6171
:103600004FF000024FF00003D7E904AB59468B019D
:10361000514643EA916351468A015146B2EB010893
:10362000594663EB01094FF000024FF000034FEAE7
:10363000C90343EA58734FEAC802904699462346A5
:1036400018EB0303BB602B4649EB0303FB604FF011
:1036500000024FF00003D7E9024529464B022146FC
:1036600043EAD15321464A02104619467B6C002298
:10367000BB62FA62D7E90A23FDF706FB02460B4656
:103680001346FB6458E0384B5B689B0900221846E0
:103690001146C0F308033B6200237B62D7E9088927
:1036A00042464B464FF000004FF00001590141EAFD
:1036B000D261500102460B464146B2EB010A49462F
:1036C00063EB010B4FF000024FF000034FEA8B1346
:1036D00043EA9A634FEA8A12B2EB0A0463EB0B05E2
:1036E0004FF000024FF00003EB0043EA5473E20096
:1036F00014461D464346E3183B604B4645EB030327
:103700007B604FF000024FF00003D7E900452946E7
:103710008B02214643EA915321468A0210461946FC
:103720007B6C0022BB61FA61D7E90623FDF7ACFA96
:1037300002460B461346FB640B4B5B681B0C03F005
:10374000030301335B003B64FA6C3B6CB2FBF3F3A5
:10375000BB6402E0054BBB6400BFBB6C184650372E
:10376000BD46BDE8B08F00BF003802400024F40021
:1037700000127A0080B400AF034B1B681846BD46A8
:103780005DF8047B704700BF3000002080B500AFBB
:10379000FFF7F0FF0246054B9B689B0A03F0070307
:1037A0000349CB5C22FA03F3184680BD003802407F
:1037B00008B0000880B500AFFFF7DCFF0246054BFC
:1037C0009B685B0B03F007030349CB5C22FA03F30E
:1037D000184680BD0038024008B0000880B582B0AD
:1037E00000AF78607B68002B01D1012341E07B684A
:1037F00093F83D30DBB2002B06D17B68002283F8C2
:103800003C207868FEF734F97B68022283F83D207B
:103810007B681A687B6804331946104600F096FDF1
:103820007B68012283F846207B68012283F83E20D2
:103830007B68012283F83F207B68012283F84020C7
:103840007B68012283F841207B68012283F84220B3
:103850007B68012283F843207B68012283F844209F
:103860007B68012283F845207B68012283F83D2094
:10387000002318460837BD4680BD000080B485B0DF
:1038800000AF78607B6893F83D30DBB2012B01D04C
:1038900001234EE07B68022283F83D207B681B6891
:1038A000DA687B681B6842F00102DA607B681B689B
:1038B000234A934222D07B681B68B3F1804F1DD00E
:1038C0007B681B681F4A934218D07B681B681E4A9E
:1038D000934213D07B681B681C4A93420ED07B68CE
:1038E0001B681B4A934209D07B681B68194A9342A4
:1038F00004D07B681B68184A934211D17B681B680F
:103900009B6803F00703FB60FB68062B10D07B6805
:103910001B681A687B681B6842F001021A6007E0A6
:103920007B681B681A687B681B6842F001021A609A
:10393000002318461437BD465DF8047B704700BF6E
:10394000000001400004004000080040000C00405E
:1039500000040140004001400018004080B582B0E2
:1039600000AF78607B68002B01D1012341E07B68C8
:1039700093F83D30DBB2002B06D17B68002283F840
:103980003C20786800F039F87B68022283F83D20FB
:103990007B681A687B6804331946104600F0D6FC31
:1039A0007B68012283F846207B68012283F83E2051
:1039B0007B68012283F83F207B68012283F8402046
:1039C0007B68012283F841207B68012283F8422032
:1039D0007B68012283F843207B68012283F844201E
:1039E0007B68012283F845207B68012283F83D2013
:1039F000002318460837BD4680BD80B483B000AFB1
:103A0000786000BF0C37BD465DF8047B704700004E
:103A100080B584B000AF786039603B68002B09D175
:103A20007B6893F83E30DBB2012B14BF01230023E7
:103A3000DBB222E03B68042B09D17B6893F83F306E
:103A4000DBB2012B14BF01230023DBB215E03B687E
:103A5000082B09D17B6893F84030DBB2012B14BFEF
:103A600001230023DBB208E07B6893F84130DBB22E
:103A7000012B14BF01230023DBB2002B01D0012353
:103A80007CE03B68002B04D17B68022283F83E2057
:103A900013E03B68042B04D17B68022283F83F20AB
:103AA0000BE03B68082B04D17B68022283F840209E
:103AB00003E07B68022283F841207B681B680122B7
:103AC0003968184600F038FF7B681B682D4A93421E
:103AD00004D07B681B682C4A934201D1012300E08B
:103AE0000023002B07D07B681B685A6C7B681B681F
:103AF00042F400425A647B681B68224A934222D0F7
:103B00007B681B68B3F1804F1DD07B681B681F4A20
:103B1000934218D07B681B681D4A934213D07B6880
:103B20001B681C4A93420ED07B681B68164A93425E
:103B300009D07B681B68184A934204D07B681B68D5
:103B4000164A934211D17B681B689B6803F00703F8
:103B5000FB60FB68062B10D07B681B681A687B68CB
:103B60001B6842F001021A6007E07B681B681A6854
:103B70007B681B6842F001021A6000231846103768
:103B8000BD4680BD0000014000040140000400402B
:103B900000080040000C00400040014000180040B8
:103BA00080B586B000AF786039607B68002B01D1AA
:103BB000012397E07B6893F83D30DBB2002B06D100
:103BC0007B68002283F83C207868FDF78DFF7B68D6
:103BD000022283F83D207B681B689B687A68126824
:103BE00023F4804323F0070393607B681A687B68A3
:103BF00004331946104600F0A9FB7B681B689B68DC
:103C00007B617B681B689B693B617B681B681B6AE7
:103C1000FB603B681B687A6913437B613B6923F453
:103C2000407323F003033B613B689A683B689B69E0
:103C30001B0213433A6913433B613B6923F440631E
:103C400023F00C033B613B6923F4704323F0F00342
:103C50003B613B68DA683B68DB691B0213433A69E6
:103C600013433B613B681B691A013B681B6A1B03DA
:103C700013433A6913433B61FB6823F02203FB6063
:103C8000FB6823F08803FB603B685A683B685B690C
:103C90001B011343FA681343FB607B681B687A6956
:103CA0009A607B681B683A699A617B681B68FA684E
:103CB0001A627B68012283F846207B68012283F820
:103CC0003E207B68012283F83F207B68012283F835
:103CD00042207B68012283F843207B68012283F81D
:103CE0003D20002318461837BD4680BD80B584B0FE
:103CF00000AF786039607B6893F83E30FB737B6877
:103D000093F83F30BB737B6893F842307B737B68DA
:103D100093F843303B733B68002B10D1FB7B012BA6
:103D200002D17B7B012B01D0012369E07B68022259
:103D300083F83E207B68022283F8422031E03B6812
:103D4000042B10D1BB7B012B02D13B7B012B01D07B
:103D5000012355E07B68022283F83F207B68022222
:103D600083F843201DE0FB7B012B08D1BB7B012B9B
:103D700005D17B7B012B02D13B7B012B01D00123A1
:103D80003EE07B68022283F83E207B68022283F8B3
:103D90003F207B68022283F842207B68022283F85E
:103DA00043203B68002B03D03B68042B08D00FE076
:103DB0007B681B6801220021184600F0BDFD16E05B
:103DC0007B681B6801220421184600F0B5FD0EE057
:103DD0007B681B6801220021184600F0ADFD7B685E
:103DE0001B6801220421184600F0A6FD00BF7B6875
:103DF0001B681A687B681B6842F001021A60002386
:103E000018461037BD4680BD80B584B000AF7860DD
:103E10007B681B68DB68FB607B681B681B69BB6099
:103E2000BB6803F00203002B20D0FB6803F0020301
:103E3000002B1BD07B681B686FF002021A617B6845
:103E400001221A777B681B689B6903F00303002B30
:103E500003D0786800F05BFA05E0786800F04DFA6E
:103E6000786800F05EFA7B6800221A77BB6803F07E
:103E70000403002B20D0FB6803F00403002B1BD0AD
:103E80007B681B686FF004021A617B6802221A7754
:103E90007B681B689B6903F44073002B03D0786830
:103EA00000F035FA05E0786800F027FA786800F04D
:103EB00038FA7B6800221A77BB6803F00803002BEE
:103EC00020D0FB6803F00803002B1BD07B681B6825
:103ED0006FF008021A617B6804221A777B681B68FE
:103EE000DB6903F00303002B03D0786800F00FFABE
:103EF00005E0786800F001FA786800F012FA7B6853
:103F000000221A77BB6803F01003002B20D0FB6857
:103F100003F01003002B1BD07B681B686FF01002AE
:103F20001A617B6808221A777B681B68DB6903F4D7
:103F30004073002B03D0786800F0E9F905E0786859
:103F400000F0DBF9786800F0ECF97B6800221A7762
:103F5000BB6803F00103002B0CD0FB6803F00103E6
:103F6000002B07D07B681B686FF001021A6178682C
:103F7000FDF77EFCBB6803F08003002B0CD0FB68D0
:103F800003F08003002B07D07B681B686FF0800272
:103F90001A61786800F07CFDBB6803F04003002BD9
:103FA0000CD0FB6803F04003002B07D07B681B6834
:103FB0006FF040021A61786800F0BDF9BB6803F049
:103FC0002003002B0CD0FB6803F02003002B07D04C
:103FD0007B681B686FF020021A61786800F04EFD64
:103FE00000BF1037BD4680BD80B586B000AFF86019
:103FF000B9607A600023FB75FB6893F83C30012BB5
:1040000001D10223AEE0FB68012283F83C207B68EB
:104010000C2B00F29F8001A252F823F051400008BF
:1040200055410008554100085541000891400008DD
:10403000554100085541000855410008D34000088B
:10404000554100085541000855410008134100083A
:10405000FB681B68B968184600F024FAFB681B6807
:104060009A69FB681B6842F008029A61FB681B684A
:104070009A69FB681B6822F004029A61FB681B685E
:104080009969BB681A69FB681B680A439A6164E016
:10409000FB681B68B968184600F074FAFB681B6877
:1040A0009A69FB681B6842F400629A61FB681B68AE
:1040B0009A69FB681B6822F480629A61FB681B683E
:1040C0009969BB681B691A02FB681B680A439A61FD
:1040D00043E0FB681B68B968184600F0C9FAFB6842
:1040E0001B68DA69FB681B6842F00802DA61FB684A
:1040F0001B68DA69FB681B6822F00402DA61FB685E
:104100001B68D969BB681A69FB681B680A43DA61D6
:1041100023E0FB681B68B968184600F01DFBFB68CC
:104120001B68DA69FB681B6842F40062DA61FB68AD
:104130001B68DA69FB681B6822F48062DA61FB683D
:104140001B68D969BB681B691A02FB681B680A43B4
:10415000DA6102E00123FB7500BFFB68002283F8EF
:104160003C20FB7D18461837BD4680BD80B584B025
:1041700000AF786039600023FB737B6893F83C30B4
:10418000012B01D10223B4E07B68012283F83C209B
:104190007B68022283F83D207B681B689B68BB60BC
:1041A000BB6823F07703BB60BB6823F47F43BB602D
:1041B0007B681B68BA689A603B681B68B3F5005F50
:1041C0003ED0B3F5005F00F28780B3F5805F00F06A
:1041D0008680B3F5805F7FD8702B1AD0702B7BD888
:1041E000602B50D0602B77D8502B3CD0502B73D8FD
:1041F000402B58D0402B6FD8302B64D0302B6BD84D
:10420000202B60D0202B67D8002B5CD0102B5AD0ED
:1042100062E07B6818683B6899683B685A683B684D
:10422000DB6800F069FB7B681B689B68BB60BB6850
:1042300043F07703BB607B681B68BA689A604FE005
:104240007B6818683B6899683B685A683B68DB681C
:1042500000F052FB7B681B689A687B681B6842F41D
:1042600080429A603CE07B6818683B6859683B680C
:10427000DB681A4600F0C6FA7B681B6850211846B6
:1042800000F01FFB2CE07B6818683B6859683B68AE
:10429000DB681A4600F0E5FA7B681B686021184667
:1042A00000F00FFB1CE07B6818683B6859683B68AE
:1042B000DB681A4600F0A6FA7B681B6840211846A6
:1042C00000F0FFFA0CE07B681A683B681B6819462F
:1042D000104600F0F6FA03E00123FB7300E000BF94
:1042E0007B68012283F83D207B68002283F83C2014
:1042F000FB7B18461037BD4680BD80B483B000AF4D
:10430000786000BF0C37BD465DF8047B704780B411
:1043100083B000AF786000BF0C37BD465DF8047B0A
:10432000704780B483B000AF786000BF0C37BD46E3
:104330005DF8047B704780B483B000AF786000BF45
:104340000C37BD465DF8047B7047000080B485B033
:1043500000AF786039607B681B68FB607B68464A09
:10436000934213D07B68B3F1804F0FD07B68434AF0
:1043700093420BD07B68424A934207D07B68414A04
:10438000934203D07B68404A934208D1FB6823F0F4
:104390007003FB603B685B68FA681343FB607B68F3
:1043A000354A93422BD07B68B3F1804F27D07B688E
:1043B000324A934223D07B68314A93421FD07B68B4
:1043C000304A93421BD07B682F4A934217D07B68B8
:1043D0002E4A934213D07B682D4A93420FD07B68BC
:1043E0002C4A93420BD07B682B4A934207D07B68C0
:1043F0002A4A934203D07B68294A934208D1FB683A
:1044000023F44073FB603B68DB68FA681343FB608E
:10441000FB6823F080023B685B691343FB607B68A9
:10442000FA681A603B689A687B68DA623B681A68C7
:104430007B689A627B68104A934203D07B68124A79
:10444000934203D13B681A697B681A637B68012237
:104450005A617B681B6903F00103012B05D17B685E
:104460001B6923F001027B681A6100BF1437BD4647
:104470005DF8047B704700BF00000140000400406D
:1044800000080040000C00400004014000400140D2
:10449000004401400048014000180040001C00405A
:1044A0000020004080B487B000AF786039607B683E
:1044B0001B6A7B617B681B6A23F001027B681A62BE
:1044C0007B685B683B617B689B69FB60FB6823F0F2
:1044D0007003FB60FB6823F00303FB603B681B6811
:1044E000FA681343FB607B6923F002037B613B683E
:1044F0009B687A6913437B617B68204A934203D0AF
:104500007B681F4A93420CD17B6923F008037B61CF
:104510003B68DB687A6913437B617B6923F00403A2
:104520007B617B68154A934203D07B68144A9342AF
:1045300011D13B6923F480733B613B6923F4007321
:104540003B613B685B693A6913433B613B689B692C
:104550003A6913433B617B683A695A607B68FA6841
:104560009A613B685A687B685A637B687A691A6209
:1045700000BF1C37BD465DF8047B7047000001405A
:104580000004014080B487B000AF786039607B6878
:104590001B6A7B617B681B6A23F010027B681A62CE
:1045A0007B685B683B617B689B69FB60FB6823F40D
:1045B000E043FB60FB6823F44073FB603B681B68CF
:1045C0001B02FA681343FB607B6923F020037B61C5
:1045D0003B689B681B017A6913437B617B68224AB5
:1045E000934203D07B68214A93420DD17B6923F02B
:1045F00080037B613B68DB681B017A6913437B6145
:104600007B6923F040037B617B68174A934203D0A8
:104610007B68164A934213D13B6923F480633B6164
:104620003B6923F400633B613B685B699B003A692B
:1046300013433B613B689B699B003A6913433B61B1
:104640007B683A695A607B68FA689A613B685A6885
:104650007B689A637B687A691A6200BF1C37BD4623
:104660005DF8047B704700BF00000140000401407A
:1046700080B487B000AF786039607B681B6A7B616B
:104680007B681B6A23F480727B681A627B685B68B4
:104690003B617B68DB69FB60FB6823F07003FB60B8
:1046A000FB6823F00303FB603B681B68FA68134355
:1046B000FB607B6923F400737B613B689B681B0292
:1046C0007A6913437B617B68214A934203D07B68FC
:1046D000204A93420DD17B6923F400637B613B68E0
:1046E000DB681B027A6913437B617B6923F4806377
:1046F0007B617B68164A934203D07B68154A9342DC
:1047000013D13B6923F480533B613B6923F400538D
:104710003B613B685B691B013A6913433B613B6842
:104720009B691B013A6913433B617B683A695A6094
:104730007B68FA68DA613B685A687B68DA637B6891
:104740007A691A6200BF1C37BD465DF8047B70476A
:10475000000001400004014080B487B000AF7860E1
:1047600039607B681B6A3B617B681B6A23F480525B
:104770007B681A627B685B687B617B68DB69FB60D6
:10478000FB6823F4E043FB60FB6823F44073FB60A9
:104790003B681B681B02FA681343FB603B6923F408
:1047A00000533B613B689B681B033A6913433B61C1
:1047B0007B68124A934203D07B68114A934209D125
:1047C0007B6923F480437B613B685B699B017A6969
:1047D00013437B617B687A695A607B68FA68DA61A7
:1047E0003B685A687B681A647B683A691A6200BF42
:1047F0001C37BD465DF8047B704700BF00000140D8
:104800000004014080B487B000AFF860B9607A60FE
:10481000FB681B6A7B61FB681B6A23F00102FB6873
:104820001A62FB689B693B613B6923F0F0033B61C3
:104830007B681B013A6913433B617B6923F00A03E0
:104840007B617A69BB6813437B61FB683A699A6153
:10485000FB687A691A6200BF1C37BD465DF8047BAD
:10486000704780B487B000AFF860B9607A60FB68C9
:104870001B6A7B61FB681B6A23F01002FB681A62EB
:10488000FB689B693B613B6923F470433B617B6838
:104890001B033A6913433B617B6923F0A0037B61EF
:1048A000BB681B017A6913437B61FB683A699A61B3
:1048B000FB687A691A6200BF1C37BD465DF8047B4D
:1048C000704780B485B000AF786039607B689B68C2
:1048D000FB60FB6823F07003FB603A68FB681343DE
:1048E00043F00703FB607B68FA689A6000BF1437E7
:1048F000BD465DF8047B704780B487B000AFF860B8
:10490000B9607A603B60FB689B687B617B6923F4DC
:104910007F437B613B681A027B681A43BB68134381
:104920007A6913437B61FB687A699A6000BF1C3720
:10493000BD465DF8047B704780B487B000AFF86077
:10494000B9607A60BB6803F01F03012202FA03F327
:104950007B61FB681A6A7B69DB431A40FB681A6259
:10496000FB681A6ABB6803F01F03796801FA03F356
:104970001A43FB681A6200BF1C37BD465DF8047B12
:104980007047000080B485B000AF786039607B6804
:1049900093F83C30012B01D102235AE07B680122BD
:1049A00083F83C207B68022283F83D207B681B68EB
:1049B0005B68FB607B681B689B68BB60FB6823F0DF
:1049C0007003FB603B681B68FA681343FB607B68FD
:1049D0001B68FA685A607B681B68214A934222D0A0
:1049E0007B681B68B3F1804F1DD07B681B681D4A34
:1049F000934218D07B681B681B4A934213D07B6894
:104A00001B681A4A93420ED07B681B68184A93426F
:104A100009D07B681B68174A934204D07B681B68E7
:104A2000154A93420CD1BB6823F08003BB603B68FE
:104A30005B68BA681343BB607B681B68BA689A609E
:104A40007B68012283F83D207B68002283F83C20AC
:104A5000002318461437BD465DF8047B704700BF3D
:104A6000000001400004004000080040000C00402D
:104A700000040140004001400018004080B483B0B1
:104A800000AF786000BF0C37BD465DF8047B70470F
:104A900080B483B000AF786000BF0C37BD465DF8CE
:104AA000047B704780B582B000AF78607B68002BD4
:104AB00001D1012342E07B6893F84130DBB2002B47
:104AC00006D17B68002283F840207868FDF78EF8D5
:104AD0007B68242283F841207B681B68DA687B6846
:104AE0001B6822F40052DA60786800F075FD7B687C
:104AF0001B681A697B681B6822F490421A617B6804
:104B00001B685A697B681B6822F02A025A617B681D
:104B10001B68DA687B681B6842F40052DA607B68C5
:104B200000225A647B68202283F841207B6820227F
:104B300083F842207B6800225A6300231846083716
:104B4000BD4680BD80B58AB002AFF860B9603B60F9
:104B50001346FB8000237B61FB6893F84230DBB295
:104B6000202B40F08180BB68002B02D0FB88002BFB
:104B700001D1012379E0FB6800225A64FB682222FC
:104B800083F84220FB6800221A63FDF703FB78617B
:104B9000FB68FA889A85FB68FA88DA85FB689B6867
:104BA000B3F5805F08D1FB681B69002B04D100239B
:104BB000FB61BB68BB6103E0BB68FB610023BB61B9
:104BC00047E03B6800937B6900222021F86800F0F1
:104BD0000DFB0346002B05D0FB68202283F8422002
:104BE000032342E0FB69002B0CD1FB681B685B6868
:104BF0009BB2C3F308039AB2BB691A80BB69023344
:104C0000BB611FE0FB689B68B3F5805F07D0FB6862
:104C10009B68002B0AD1FB681B69002B06D1FB683F
:104C20001B685B68DAB2FB691A7008E0FB681B68F6
:104C30005B68DBB203F07F03DAB2FB691A70FB69D1
:104C40000133FB61FB68DB8D9BB2013B9AB2FB68D1
:104C5000DA85FB68DB8D9BB2002BB2D1FB6820228A
:104C600083F84220002300E0022318462037BD4687
:104C700080BD000080B5BAB000AF78607B681B686B
:104C80001B68C7F8E4307B681B68DB68C7F8E03056
:104C90007B681B685B69C7F8DC300023C7F8D83035
:104CA0000023C7F8D430D7F8E43003F00F03C7F877
:104CB000D830D7F8D830002B0FD1D7F8E43003F034
:104CC0002003002B09D0D7F8E03003F02003002B9D
:104CD00003D0786800F0C2FB5BE2D7F8D830002B35
:104CE00000F0DE80D7F8DC3003F00103002B06D1A2
:104CF000D7F8E03003F49073002B00F0D180D7F8A0
:104D0000E43003F00103002B0BD0D7F8E03003F4BC
:104D10008073002B05D07B685B6C43F001027B68DD
:104D20005A64D7F8E43003F00403002B0BD0D7F813
:104D3000DC3003F00103002B05D07B685B6C43F093
:104D400002027B685A64D7F8E43003F00203002BB8
:104D50000BD0D7F8DC3003F00103002B05D07B68C3
:104D60005B6C43F004027B685A64D7F8E43003F0CC
:104D70000803002B11D0D7F8E03003F02003002BFC
:104D800005D1D7F8DC3003F00103002B05D07B6898
:104D90005B6C43F008027B685A647B685B6C002B99
:104DA00000F0F281D7F8E43003F02003002B08D0A4
:104DB000D7F8E03003F02003002B02D0786800F031
:104DC0004DFB7B681B685B6903F04003402B0CBF05
:104DD00001230023DBB2C7F8D4307B685B6C03F09F
:104DE0000803002B03D1D7F8D430002B4FD07868BC
:104DF00000F055FA7B681B685B6903F04003402BA9
:104E000041D17B681B681433C7F89C30D7F89C30BD
:104E100053E8003FC7F89830D7F8983023F04003A4
:104E2000C7F8D0307B681B681433D7F8D020C7F898
:104E3000A820C7F8A430D7F8A410D7F8A82041E8D4
:104E40000023C7F8A030D7F8A030002BD9D17B6859
:104E5000DB6B002B13D07B68DB6B7E4A1A657B68AB
:104E6000DB6B1846FDF7F6FB0346002B16D07B687C
:104E7000DB6B1B6D7A68D26B104698470EE0786842
:104E800000F09EF90AE0786800F09AF906E0786888
:104E900000F096F97B6800225A6475E100BF73E167
:104EA0007B681B6B012B40F04F81D7F8E43003F097
:104EB0001003002B00F04881D7F8E03003F0100316
:104EC000002B00F041810023BB607B681B681B68DE
:104ED000BB607B681B685B68BB60BB687B681B68EA
:104EE0005B6903F04003402B40F0B6807B68DB6BCE
:104EF0001B685B68A7F8BE30B7F8BE30002B00F027
:104F000045817B689B8DB7F8BE209A4280F03E8138
:104F10007B68B7F8BE20DA857B68DB6BDB69B3F5AD
:104F2000807F00F088807B681B680C33C7F888306E
:104F3000D7F8883053E8003FC7F88430D7F884307A
:104F400023F48073C7F8B8307B681B680C33D7F83C
:104F5000B820C7F89420C7F89030D7F89010D7F849
:104F6000942041E80023C7F88C30D7F88C30002B10
:104F7000D9D17B681B6814337B677B6F53E8003F94
:104F80003B673B6F23F00103C7F8B4307B681B68B5
:104F90001433D7F8B420C7F88020FB67F96FD7F82F
:104FA000802041E80023BB67BB6F002BE1D17B6809
:104FB0001B6814333B663B6E53E8003FFB65FB6D9B
:104FC00023F04003C7F8B0307B681B681433D7F870
:104FD000B020FA66BB66B96EFA6E41E800237B66C4
:104FE0007B6E002BE3D17B68202283F842207B6814
:104FF00000221A637B681B680C33FB64FB6C53E86C
:10500000003FBB64BB6C23F01003C7F8AC307B6877
:105010001B680C33D7F8AC20BA657B65796DBA6D27
:1050200041E800233B653B6D002BE3D17B68DB6BE4
:105030001846FDF79FFA7B6802225A637B689A8DB7
:105040007B68DB8D9BB2D31A9BB21946786800F05F
:10505000C1F89BE0655300087B689A8D7B68DB8D07
:105060009BB2D31AA7F8CE307B68DB8D9BB2002BA6
:1050700000F08E80B7F8CE30002B00F089807B687E
:105080001B680C33BB63BB6B53E8003F7B637B6BDC
:1050900023F49073C7F8C8307B681B680C33D7F8CB
:1050A000C8207A643B64396C7A6C41E80023FB6366
:1050B000FB6B002BE3D17B681B6814337B627B6A3C
:1050C00053E8003F3B623B6A23F00103C7F8C4305A
:1050D0007B681B681433D7F8C4203A63FB62F96A13
:1050E0003A6B41E80023BB62BB6A002BE3D17B68CB
:1050F000202283F842207B6800221A637B681B68A9
:105100000C333B613B6953E8003FFB60FB6823F0D5
:105110001003C7F8C0307B681B680C33D7F8C02079
:10512000FA61BB61B969FA6941E800237B617B6977
:10513000002BE3D17B6802225A63B7F8CE301946C0
:10514000786800F047F823E0D7F8E43003F08003F4
:10515000002B09D0D7F8E03003F08003002B03D0F8
:10516000786800F013F914E0D7F8E43003F0400356
:10517000002B0ED0D7F8E03003F04003002B08D00E
:10518000786800F053F904E000BF02E000BF00E0DF
:1051900000BFE837BD4680BD80B483B000AF786003
:1051A00000BF0C37BD465DF8047B704780B483B008
:1051B00000AF786000BF0C37BD465DF8047B7047D8
:1051C00080B483B000AF786000BF0C37BD465DF897
:1051D000047B704780B483B000AF78600B467B805F
:1051E00000BF0C37BD465DF8047B704780B586B0C4
:1051F00000AFF860B9603B601346FB713BE03B6A6F
:10520000B3F1FF3F37D0FCF7C5FF02463B68D31A26
:105210003A6A9A4202D33B6A002B01D103233AE057
:10522000FB681B68DB6803F00403002B23D0BB681A
:10523000802B20D0BB68402B1DD0FB681B681B68EF
:1052400003F00803082B16D100237B61FB681B6861
:105250001B687B61FB681B685B687B617B69F86826
:1052600000F01DF8FB6808225A64FB68002283F8EE
:10527000402001230FE0FB681B681A68BB681340DD
:10528000BA689A420CBF01230023DBB21A46FB79AD
:105290009A42B4D0002318461837BD4680BD80B46A
:1052A00095B000AF78607B681B680C337B637B6BC9
:1052B00053E8003F3B633B6B23F49073FB647B68D4
:1052C0001B680C33FA6C3A64FB63F96B3A6C41E887
:1052D0000023BB63BB6B002BE5D17B681B681433D9
:1052E0003B623B6A53E8003FFB61FB6923F001032B
:1052F000BB647B681B681433BA6CFA62BB62B96A20
:10530000FA6A41E800237B627B6A002BE5D17B6867
:105310001B6B012B19D17B681B680C33FB60FB688E
:1053200053E8003FBB60BB6823F010037B647B68DD
:105330001B680C337A6CBA617B617969BA6941E8A0
:1053400000233B613B69002BE5D17B68202283F879
:1053500042207B6800221A6300BF5437BD465DF8C7
:10536000047B704780B584B000AF78607B689B6B2E
:10537000FB60FB680022DA85FB680022DA84F868AB
:10538000FFF71EFF00BF1037BD4680BD80B485B05B
:1053900000AF78607B6893F84130DBB2212B3ED1BF
:1053A0007B689B68B3F5805F14D17B681B69002B19
:1053B00010D17B681B6AFB60FB681B881A467B6800
:1053C0001B68C2F308025A607B681B6A9A1C7B68E0
:1053D0001A6208E07B681B6A591C7A6811621A78A5
:1053E0007B681B685A607B68DB8C9BB2013B9BB27D
:1053F0007A681946D184002B0FD17B681B68DA6864
:105400007B681B6822F08002DA607B681B68DA68C0
:105410007B681B6842F04002DA60002300E0022350
:1054200018461437BD465DF8047B704780B582B0DE
:1054300000AF78607B681B68DA687B681B6822F0C5
:105440004002DA607B68202283F841207868FFF709
:10545000A3FE002318460837BD4680BD80B58CB03A
:1054600000AF78607B6893F84230DBB2222B40F0CB
:10547000AE807B689B68B3F5805F17D17B681B6942
:10548000002B13D10023FB627B689B6ABB627B68A5
:105490001B685B689BB2C3F308039AB2BB6A1A80AD
:1054A0007B689B6A9A1C7B689A6226E07B689B6A91
:1054B000FB620023BB627B689B68B3F5805F07D00B
:1054C0007B689B68002B0AD17B681B69002B06D187
:1054D0007B681B685B68DAB2FB6A1A7008E07B685D
:1054E0001B685B68DBB203F07F03DAB2FB6A1A70F9
:1054F0007B689B6A5A1C7B689A627B68DB8D9BB2D7
:10550000013B9BB27A681946D185002B5DD17B683F
:105510001B68DA687B681B6822F02002DA607B680F
:105520001B68DA687B681B6822F48072DA607B682B
:105530001B685A697B681B6822F001025A617B680C
:10554000202283F842207B6800225A637B681B6B11
:10555000012B35D17B6800221A637B681B680C33F2
:105560007B617B6953E8003F3B613B6923F010039B
:105570007B627B681B680C337A6A3A62FB61F9696B
:105580003A6A41E80023BB61BB69002BE5D17B6827
:105590001B681B6803F01003102B0AD10023FB606B
:1055A0007B681B681B68FB607B681B685B68FB6033
:1055B000FB687B689B8D19467868FFF70BFE02E05D
:1055C0007868FFF7F3FD002302E0002300E00223E8
:1055D00018463037BD4680BD2DE9B04FC0B000AF92
:1055E000C7F8F400D7F8F4301B681B6923F4405067
:1055F000D7F8F430D968D7F8F4301A6840EA0103D4
:105600001361D7F8F4309A68D7F8F4301B691A435D
:10561000D7F8F4305B691A43D7F8F430DB691343E9
:10562000C7F8F830D7F8F4301B68DB6823F416416C
:1056300021F00C01D7F8F4301A68D7F8F8300B4392
:10564000D360D7F8F4301B685B6923F44070D7F857
:10565000F4309969D7F8F4301A6840EA01035361CD
:10566000D7F8F4301A688F4B9A4205D0D7F8F43047
:105670001A688D4B9A4204D1FEF79CF8C7F8FC00DB
:1056800003E0FEF783F8C7F8FC00D7F8F430DB69D5
:10569000B3F5004F40F00C81D7F8FC300022C7F87A
:1056A000E830C7F8EC20D7E93A4522462B46911856
:1056B000B9655B41FB65D7E91623214612EB01086A
:1056C000294643EB01094FF000024FF000034FEA77
:1056D000C90343EA58734FEAC802904699462346E5
:1056E00018EB0303C7F8E0302B4649EB0303C7F878
:1056F000E430D7F8F4305B680022C7F8D830C7F838
:10570000DC20D7E936120B46DB183B65134642EB2B
:1057100003037B65D7E91423D7E93801FBF7B4FA13
:1057200002460B46614BA3FB02235B091C01D7F821
:10573000FC300022C7F8D030C7F8D420D7E934892C
:1057400042464B469118B9645B41FB64D7E912238A
:10575000414612EB010A494643EB010B4FF00002B0
:105760004FF000034FEACB0343EA5A734FEACA02F1
:1057700092469B4643461AEB0303C7F8C8304B4694
:105780004BEB0303C7F8CC30D7F8F4305B6800224A
:10579000C7F8C030C7F8C420D7E930120B46DB1871
:1057A0003B64134642EB03037B64D7E91023D7E93C
:1057B0003201FBF769FA02460B4611463B4BA3FB4D
:1057C00001235B09642202FB03F3CB1ADB0003F124
:1057D0003202364BA3FB02235B095B0003F4F87330
:1057E0001C44D7F8FC300022C7F8B830C7F8BC20FA
:1057F000D7E92E8942464B469118B9635B41FB635A
:10580000D7E90E2341465118396349464B417B6322
:105810004FF000024FF00003D7E90CAB5946CB0024
:10582000514643EA51735146CA0010461946034691
:1058300042469B18C7F8B0304B460A4642EB03037A
:10584000C7F8B430D7F8F4305B680022C7F8A83046
:10585000C7F8AC20D7E92A120B46DB18BB62134607
:1058600042EB0303FB62D7E90A23D7E92C01FBF7DC
:105870000BFA02460B460D4BA3FB02135B09642196
:1058800001FB03F3D31ADB003233084AA2FB0323E4
:105890005B0903F00702D7F8F4301B6822449A60D2
:1058A00006E100BF00100140001401401F85EB51CC
:1058B000D7F8FC300022C7F8A030C7F8A420D7E9F9
:1058C000288942464B46911839625B417B62D7E991
:1058D000082341465418494643EB01054FF00002A6
:1058E0004FF00003EB0043EA5473E20014461D46F8
:1058F0004346E318C7F898304B4645EB0303C7F817
:105900009C30D7F8F4305B680022C7F89030C7F8B5
:1059100094204FF000024FF00003D7E924452946B8
:105920008B00214643EA917321468A00D7E926017C
:10593000FBF7AAF902460B46604BA3FB02235B0967
:105940001C01D7F8FC300022C7F88830C7F88C203B
:10595000D7E9228942464B469118B9615B41FB6108
:10596000D7E9062341465118396149464B417B61CD
:105970004FF000024FF00003D7E904AB5946CB00CB
:10598000514643EA51735146CA0010461946034630
:1059900042469B18C7F880304B460A4642EB030349
:1059A000C7F88430D7F8F4305B680022BB67FA6729
:1059B0004FF000024FF00003D7E91E8949468B00E3
:1059C000414643EA917341468A00D7E92001FBF73B
:1059D0005BF902460B461146384BA3FB01235B09DA
:1059E000642202FB03F3CB1A1B013233334AA2FBBE
:1059F00003235B0903F0F0031C44D7F8FC300022BA
:105A00003B677A67D7E91C8942464B469118B960D3
:105A10005B41FB60D7E90223414651183960494692
:105A20004B417B604FF000024FF00003D7E900AB21
:105A30005946CB00514643EA51735146CA001046BD
:105A40001946034642469B18BB664B460A4642EB44
:105A50000303FB66D7F8F4305B6800223B667A6686
:105A60004FF000024FF00003D7E9188949468B0038
:105A7000414643EA917341468A00D7E91A01FBF790
:105A800003F902460B460D4BA3FB02135B0964218D
:105A900001FB03F3D31A1B013233084AA2FB032391
:105AA0005B0903F00F02D7F8F4301B6822449A60B8
:105AB00000BF07F58077BD46BDE8B08F1F85EB516D
:105AC0002DE9FF4755EC104B002D0E4619462B468D
:105AD000BBBF05F100431D4600232D230B700D9B1A
